:020000040800F2
:1000000080040020450100086124000863240008E2
:10001000672400086B2400086F240008000000001B
:100020000000000000000000000000007324000831
:1000300075240008000000007724000879240008D7
:100040005F0100085F0100085F0100085F01000810
:100050005F0100085F0100085F0100085F01000800
:100060005F0100085F0100085F0100085F010008F0
:100070005F0100085F0100085F0100085F010008E0
:100080005F0100085F0100085F0100085F010008D0
:100090005F0100085F0100085F0100085F010008C0
:1000A0005F0100085F0100085F0100085F010008B0
:1000B0005F0100085F010008DD2600085F010008FD
:1000C0005F0100085F0100085F0100085F01000890
:1000D0005F0100085F0100085F010008C5250008F6
:1000E0005F0100085F0100085F0100085F01000870
:1000F0005F0100085F0100085F0100085F01000860
:100100005F0100085F0100085F0100085F0100084F
:100110005F0100085F010008232B00081F2C000866
:100120005F0100085F0100085F0100085F0100082F
:10013000DFF80CD003F03CFA00480047ED2300083C
:10014000800400200648804706480047FEE7FEE797
:10015000FEE7FEE7FEE7FEE7FEE7FEE7FEE7FEE777
:1001600047020008310100080CB500200190009002
:100170006C48006840F480306A49086000BF6948F4
:10018000006800F4003000900198401C0190009835
:1001900018B90198B0F5A06FF1D16248006800F479
:1001A000003010B10120009001E000200090009884
:1001B000012843D15C48006840F010005A490860AB
:1001C0000846006820F0030008600846006840F018
:1001D0000200086053484068524948600846406839
:1001E00048600846406840F48060486008464068BF
:1001F00020F47C1048600846406840F4E8104860ED
:100200000846006840F08070086000BF45480068FC
:1002100000F000700028F9D04248406820F0030048
:10022000404948600846406840F00200486000BF0E
:100230003C48406800F00C000828F9D10CBD10B50E
:10024000FFF792FF10BD10B53648006840F001007E
:1002500034490860084640683449084031494860DC
:1002600008460068324908402E4908600846006880
:1002700020F4802008600846406820F4FE004860B2
:100280004FF41F008860FFF7DAFF4FF00060294944
:10029000086010BD10B5002100200022214B5B68D2
:1002A00003F00C0121B1042906D0082928D107E068
:1002B000214B224C236027E01F4B204C236023E07E
:1002C000184B5B6803F47010164B5B6803F48032C4
:1002D000022303EB904022B9194B4343174C236090
:1002E0000DE0104B5B6803F4003323B1144B434320
:1002F000124C236003E0104B4343104C236003E097
:100300000D4B0E4C236000BF00BF064B5B68C3F370
:1003100003130C4CE15C094B1B68CB40074C23607A
:1003200010BD000000100240002002400000FFF855
:10033000FFFFF6FE08ED00E000127A00000000204A
:1003400000093D000400002031490143314A116099
:10035000704770B5002100230F22C47804B32D4CE0
:10036000246804F4E064C4F5E064210AC1F10403E4
:10037000CA40447804FA03F1847814402143090107
:10038000254C0678A155047804F01F050124AC40E3
:1003900005786D11AD0005F1E025C5F8004109E0D3
:1003A000047804F01F050124AC401C4D067876113A
:1003B00045F8264070BD1A4A0A400243154B1B1FE0
:1003C0001A60704739B1134A121D12680243114B6B
:1003D0001B1D1A6006E00F4A121D126882430D4B66
:1003E0001B1D1A607047042808D14FF0E0210969ED
:1003F00041F004014FF0E022116107E04FF0E021ED
:10040000096921F004014FF0E022116170470000FA
:100410000000FA050CED00E000E400E080E100E0FF
:1004200080FFFF1F10B50446FA48844208D101211D
:10043000401500F07FFE0021601500F07BFE17E004
:10044000F548844208D10121001500F073FE002117
:10045000201500F06FFE0BE0F048844208D1012126
:10046000C80300F067FE00214FF4004000F062FE78
:1004700010BD30B50246002000235068E84C2040F3
:100480000D790C6844EA0524204350609068E54CDF
:100490002040D1E902542C434D7944EA45042043DD
:1004A0009060D06A20F470000C7C641EE4B2234398
:1004B00040EA0350D06230BD0021016001714171FA
:1004C0008160C16001210174704721B1826842F0EE
:1004D0000102826003E0826822F0010282607047BC
:1004E00021B1826842F48072826003E0826822F463
:1004F00080728260704710B50023CBB21AB1446895
:100500001C43446002E044689C43446010BD816821
:1005100041F0080181607047014600208A6802F0BE
:1005200008020AB1012000E000207047816841F014
:10053000040181607047014600208A6802F00402CD
:100540000AB1012000E00020704721B1826842F426
:10055000A002826003E0826822F4A00282607047F9
:10056000014600208A6802F480020AB1012000E0FE
:100570000020704710B50A4600210023416821F48D
:100580006041531E41EA4331416010BD21B14268D0
:1005900042F40062426003E0426822F4006242607A
:1005A0007047F0B504460D4600200021092D11DDED
:1005B000E068A5F10A0606EB4607072606FA07F1EA
:1005C0008843A5F10A0606EB460603FA06F108433E
:1005D000E0600CE0206905EB4507072606FA07F105
:1005E000884305EB450603FA06F108432061072A14
:1005F0000FDA606B561E06EB86071F2606FA07F118
:100600008843561E06EB860605FA06F1084360632A
:1006100022E00D2A0FDA206BD61F06EB86071F2675
:1006200006FA07F18843D61F06EB860605FA06F19F
:100630000843206310E0E06AA2F10D0606EB86078E
:100640001F2606FA07F18843A2F10D0606EB86067F
:1006500005FA06F10843E062F0BD21B1826842F478
:100660008012826003E0826822F480128260704708
:100670000146C86C80B2704766484C3000687047CD
:1006800021B1426842F48062426003E0426822F491
:1006900080624260704721B1426842F480524260F9
:1006A00003E0426822F48052426070470A4600210B
:1006B000816821F4E04111438160704721B1826873
:1006C00042F40042826003E0826822F400428260C9
:1006D000704721B1826842F40212826003E08268AE
:1006E00022F4021282607047014600208A6802F4F8
:1006F00000120AB1012000E000207047F0B5044666
:100700001546002000220026092911DDE068A1F12C
:100710000A0707EB470C072707FA0CF29043A1F1F1
:100720000A0707EB470703FA07F21043E0600CE003
:10073000206901EB410C072707FA0CF2904301EB0B
:10074000410703FA07F210432061A06BC0F3015682
:10075000EF1C06F1010CA7EB0C0707EB870C1F271A
:1007600007FA0CF29043EF1C06F1010CA7EB0C0703
:1007700007EB870701FA07F21043A063F0BD10B53D
:100780000A4600210023816B21F44011531E41EAE7
:100790000351816310BD08B5002300930090009BB6
:1007A0000B440093009B1A6008BD08B50246002068
:1007B0000090009201F12800009B184400900098DE
:1007C000006880B208BD0A4600214168164B1940F6
:1007D0001143416070474162826270470A460021BE
:1007E000416821F01F0111434160704740B1094940
:1007F0000831096841F40001064A0832116007E037
:1008000004490831096821F40001024A08321160E4
:10081000704700000024014000280140003C0140D6
:10082000FFFEF0FFFDF7F1FFFFFD3FFF0246002056
:1008300013680B400BB1012000E000207047CA4351
:100840000260704770B502460020002300240B129E
:100850005568CEB205EA060415681D4015B10CB105
:10086000012000E0002070BD00220A12D343036083
:100870007047000001684FF6FE72114001600021D0
:10088000016041608160C1608D49884208D18C4916
:100890000839496841F00F01894A083A51608AE0F5
:1008A00087491431884208D185490839496841F09F
:1008B000F001834A083A51607DE08149283188423D
:1008C00008D17F490839496841F470617C4A083A87
:1008D000516070E07A493C31884208D17849083942
:1008E000496841F47041764A083A516063E07449BE
:1008F0005031884208D172490839496841F4702161
:100900006F4A083A516056E06D496431884208D117
:100910006B490839496841F47001694A083A5160E5
:1009200049E067497831884208D165490839496802
:1009300041F07061624A083A51603CE06149884286
:1009400006D1011F096841F00F01021F116032E05A
:100950005C491431884208D15A49091F096841F09D
:10096000F001584A121F116025E05649283188428B
:1009700008D15449091F096841F47061514A121F96
:10098000116018E04F493C31884208D14D49091F98
:10099000096841F470414B4A121F11600BE049494C
:1009A0005031884207D14749091F096841F4702135
:1009B000444A121F1160704710B50022026847F6C2
:1009C000F0739A430C6A8B6823430C6923434C6988
:1009D00023438C692343CC6923434C6A23438C6AA9
:1009E00023431A430260CB6843600B6883604B6803
:1009F000C36010BD0021016041608160C160016180
:100A000041618161C161016241628162704721B1CE
:100A1000026842F00102026004E002684FF6FE73D1
:100A20001A40026070471AB103680B43036002E08A
:100A300003688B4303607047416070470146486814
:100A400080B2704701460020002201F080531BB1A4
:100A50001C4B083B1A6802E0194B083B1A6802EA73
:100A600001030BB1012000E00020704700F080512D
:100A700019B11449091F086002E01149083948609A
:100A8000704701460020002201F080531BB10D4B3E
:100A9000083B1A6802E00A4B083B1A6802EA0103A5
:100AA0000BB1012000E00020704700F0805119B127
:100AB0000449091F086002E001490839486070478D
:100AC000080002400804024010B50446CC488442A5
:100AD00008D10121042000F02DFB0021042000F0AA
:100AE00029FB46E0C748844208D10121082000F0D4
:100AF00021FB0021082000F01DFB3AE0C24884429F
:100B000008D10121102000F015FB0021102000F079
:100B100011FB2EE0BD48844208D10121202000F0C5
:100B200009FB0021202000F005FB22E0B8488442A8
:100B300008D10121402000F0FDFA0021402000F002
:100B4000F9FA16E0B348844208D10121802000F070
:100B5000F1FA0021802000F0EDFA0AE0AE4884426C
:100B600007D10121801500F0E5FA0021A01500F061
:100B7000E1FA10BD10B50121084600F0DBFA0021B2
:100B8000012000F0D7FA10BD2DE9F0410246002502
:100B90000026002000230024002791F803C00CF059
:100BA0000F0591F803C00CF0100CBCF1000F03D03E
:100BB00091F802C04CEA050591F800C0BCF1000FA5
:100BC00031D0146800202BE04FF0010C0CFA00F338
:100BD000B1F800C00CEA03069E4220D183004FF01A
:100BE0000F0C0CFA03F7BC4305FA03FC4CEA0404AF
:100BF00091F803C0BCF1280F06D14FF0010C0CFA9C
:100C000000FCC2F814C00AE091F803C0BCF1480F20
:100C100005D14FF0010C0CFA00FCC2F810C0401CCA
:100C20000828D1D31460B1F800C0BCF1FF0F34DD47
:100C3000546800202EE000F1080C4FF0010808FA7B
:100C40000CF3B1F800C00CEA03069E4221D18300E8
:100C50004FF00F0C0CFA03F7BC4305FA03FC4CEA07
:100C6000040491F803C0BCF1280F05D100F1080C71
:100C700008FA0CF8C2F8148091F803C0BCF1480FD0
:100C800007D100F1080C4FF0010808FA0CF8C2F87F
:100C90001080401C0828CED35460BDE8F0814FF688
:100CA000FF710180022181700421C17070470246EA
:100CB000002093680B400BB1012000E0002070473A
:100CC0000146886880B2704702460020D3680B4016
:100CD0000BB1012000E0002070470146C86880B2D7
:100CE000704701617047416170470AB1016100E0DE
:100CF00041617047C16070474FF480320A4382619E
:100D00008161826182698269704702460020434B9B
:100D100018684FF68073184040EA021008433F4BB2
:100D2000186070473E49C8617047F0B50A46002315
:100D300000240021002500F00046B6F1004F02D14A
:100D4000364EF16901E0354E7168C0F3034583B258
:100D500000F44016B6F5401F08D121F070612F4E07
:100D6000766826F070662D4F7E6012E000F48016E3
:100D7000B6F5801F06D1032606FA05F4A14341F01B
:100D8000706106E0460D360103FA06F6B14341F004
:100D9000706122B1460D360103FA06F6314300F0C8
:100DA0000046B6F1004F02D11C4EF16101E01B4E2E
:100DB0007160F0BD30B500228B071C0F0F2303FAC2
:100DC00004F2164B08338C1053F824309343134C21
:100DD00008348D1044F8253023468C1053F8243005
:100DE0008C07240F00FA04F423430C4C08348D10B4
:100DF00044F8253030BD0A49DC31086070470000F6
:100E000000080140000C01400010014000140140A6
:100E100000180140001C014000200140000001407A
:100E200000002042DF48006840F00100DD49086012
:100E300008464068DC490840DA49486008460068CE
:100E4000DA490840D74908600846006820F4802045
:100E500008600846406820F4FE0048604FF41F0018
:100E600088607047CF49096821F48031CD4A11600C
:100E70001146096821F480211160B0F5803F03D04C
:100E8000B0F5802F0ED106E0C649096841F48031E3
:100E9000C44A116007E0C349096841F4A021C14A6E
:100EA000116000E000BF00BF704710B5014600228E
:100EB000002300204A11012A02D1BA4C236806E01F
:100EC000022A02D1B74C236A01E0B64C636A01F0F2
:100ED0001F02012494401C400CB1012000E00020BE
:100EE00010BD38B5002000900024002500BF31203F
:100EF000FFF7DBFF05460098401C00900098B0F516
:100F0000A06F01D0002DF2D03120FFF7CEFF08B145
:100F1000012400E00024204638BD01460020A14AFB
:100F2000106820F0F80040EAC10010607047A04946
:100F300008607047024600209A4B586820F47C10E5
:100F400042EA01031843974B586070479849086676
:100F5000704701460020934A506820F00300084380
:100F6000506070478F48406800F00C0070470146A1
:100F700000208C4A506820F0F00008435060704711
:100F800001460020874A506820F4E0600843506022
:100F9000704701460020834A506820F4605040EAC0
:100FA000C1005060704729B17E4A527A02437D4B9E
:100FB0005A7204E07B4A527A82437A4B5A727047E3
:100FC0007B49D8310860704701460020754A506857
:100FD00020F440400843506070470021714A20329D
:100FE0001170704A82F82010012802D004280AD11A
:100FF00004E001216B4A2032117005E00521694AA5
:101000002032117000E000BF00BF704769490860DE
:1010100070476449096A0143624A11627047654931
:1010200044390860704730B50021002200240023B5
:101030005C4D6D6805F00C0121B1042905D008292B
:1010400023D105E05C4D056022E05B4D05601FE0AB
:10105000544D6D6805F47012524D6D6805F480347E
:10106000022505EB92421CB9544D554305600BE037
:101070004C4D6D6805F400351DB1504D554305606C
:1010800002E04D4D5543056002E04B4D056000BF49
:1010900000BF444D6D6805F0F0010909484D6B5CD7
:1010A0000568DD4045603F4D6D6805F4E061090A63
:1010B000434D6B5C4568DD4085603A4D6D6805F4D5
:1010C0006051C90A3E4D6B5C4568DD40C560354DD9
:1010D0006D6805F44041890B3A4D6B5CC568B5FB02
:1010E000F3F5056130BD29B12E4A526902432D4BFB
:1010F0005A6104E02B4A526982432A4B5A61704775
:1011000029B1284A92690243264B9A6104E0254A94
:1011100092698243234B9A61704729B1214AD2696F
:101120000243204BDA6104E01E4AD26982431D4B20
:10113000DA61704729B11B4AD2680243194BDA6061
:1011400004E0184AD2688243164BDA60704729B12E
:10115000144A12690243134B1A6104E0114A1269DE
:101160008243104B1A61704712494039086070473A
:101170000F49C86470470B49C87170470948406AF5
:1011800040F0807007494862704701460020054AD8
:1011900092680A400AB1012000E00020704701492E
:1011A00088727047001002400000FFF8FFFFF6FE53
:1011B000000042428004424200127A0000093D00D1
:1011C000140000202400002010B50446FE4884428C
:1011D00008D10121C014FFF7ADFF0021E014FFF793
:1011E000A9FFC4E0B4F1804F08D101210846FFF700
:1011F000AEFF00210120FFF7AAFFB8E0F3488442C8
:1012000008D101210220FFF7A2FF00210220FFF7F1
:101210009EFFACE0EE48844208D101210420FFF794
:1012200096FF00210420FFF792FFA0E0E9488442E6
:1012300008D101210820FFF78AFF00210820FFF7CD
:1012400086FF94E0E448844208D101211020FFF792
:101250007EFF00211020FFF77AFF88E0DF488442FC
:1012600008D101212020FFF772FF00212020FFF785
:101270006EFF7CE0DA48844208D101214014FFF778
:1012800059FF00216014FFF755FF70E0D5488442F4
:1012900009D10121C804FFF74DFF00214FF40020C0
:1012A000FFF748FF63E0D048844209D101210805D7
:1012B000FFF740FF00214FF48010FFF73BFF56E09F
:1012C000CA48844209D101214805FFF733FF0021B4
:1012D0004FF40010FFF72EFF49E0C548844208D1C3
:1012E00001214020FFF733FF00214020FFF72FFFAF
:1012F0003DE0C048844208D101218020FFF727FF4C
:1013000000218020FFF723FF31E0BB48844208D151
:1013100001218015FFF71BFF0021A015FFF717FF24
:1013200025E0B648844209D101210804FFF702FFF5
:1013300000214FF48030FFF7FDFE18E0B0488442F2
:1013400009D101214804FFF7F5FE00214FF40030D8
:10135000FFF7F0FE0BE0AB48844208D1012188047E
:10136000FFF7E8FE00214FF48020FFF7E3FE10BDF9
:1013700000220288944B98420ED0994B98420BD091
:10138000B0F1804F08D0914B984205D0904B9842D5
:1013900002D0904B984204D14FF68F731A404B887D
:1013A0001A438D4B984207D08C4B984204D04FF68D
:1013B000FF431A40CB881A4302808B8883850B88B1
:1013C0000385814B98420BD0854B984208D08B4BBC
:1013D000984205D08A4B984202D08A4B984201D15C
:1013E0000B7A038601238382704770B500240022A4
:1013F0000023058C4FF6FE7635400584028C8388E9
:10140000048B4FF68F752C40B51E2C400D882C4355
:10141000751E2A400D892A434D882A436A4DA842E9
:101420000BD06F4DA84208D0744DA84205D0744D22
:10143000A84202D0734DA84213D14FF6F7752A4047
:101440004D892A434FF6FB752A408D882A434FF673
:10145000FF652B404FF6FF552B408D892B43CD89DF
:101460002B4383800483CD888586028470BD70B54C
:10147000002400220023058C4FF6EF7635400584CA
:10148000028C8388048B48F6FF752C404FF6FF458D
:101490002C400D884FF6FF7606EA05252C434FF6C3
:1014A000DF752A400D8906EA05152A434D8806EAAC
:1014B00005152A43444DA84202D0494DA8421DD1EA
:1014C0004FF67F752A404D894FF6FF7606EA0515DF
:1014D0002A434FF6BF752A408D8806EA05152A4330
:1014E0004FF6FF352B404FF2FF752B408D8906EAF2
:1014F00085052B43CD8906EA85052B43838004832C
:10150000CD880587028470BD70B5002400220023B9
:10151000058C4FF6FF6635400584028C8388848BEA
:101520004FF68F752C404FF6FC752C400D882C43E0
:101530004FF6FF552A400D894FF6FF7606EA05253E
:101540002A434D8806EA05252A431F4DA84202D0AA
:10155000234DA8421DD14FF2FF752A404D894FF609
:10156000FF7606EA05252A434FF6FF352A408D8887
:1015700006EA05252A434EF6FF752B404DF6FF750A
:101580002B408D8906EA05152B43CD8906EA051502
:101590002B4383808483CD888587028470BD70B59A
:1015A000002200230024058C4EF6FF76354005848A
:1015B000038C8488828B48F6FF752A404FF6FF45DE
:1015C0002A400D8820E00000002C0140000400406B
:1015D00000080040000C00400010004000140040D3
:1015E00000340140004C01400050014000540140D3
:1015F00000180040001C0040002000400040014056
:1016000000440140004801404FF6FF7606EA0525F8
:101610002A434DF6FF752B400D8906EA05352B430D
:101620004D8806EA05352B43FA4DA84202D0FA4D03
:10163000A84208D14BF6FF752C408D894FF6FF76F6
:1016400006EA85152C4384808283CD88A0F840501B
:10165000038470BD828B4FF2FF331A408283828BEA
:101660004FF6FF7303EA01231A4382837047F0B5F4
:101670000C461546002200210026078C4EF6FF7C02
:1016800007EA0C070784828B018C4FF6FF7707EA85
:10169000043640F6FF473A404FF6FF7707EA052742
:1016A0003A434FF6FF7707EA03373A43D94FB84238
:1016B0000ED0D94FB8420BD0B0F1804F08D0D74FE1
:1016C000B84205D0D64FB84202D0D64FB84206D164
:1016D0004DF6FF77394046F48057394305E047F629
:1016E000FF57394044F48057394382830184F0BD69
:1016F000828B4FF6F3731A408283828B0A43828374
:101700007047F0B50C461546002200210026078CD4
:101710004FF6FF6C07EA0C070784828B018C4FF6AB
:10172000FF7707EA04264FF60C773A404FF6FF772B
:1017300007EA03172F433A43B64FB8420ED0B64FCD
:10174000B8420BD0B0F1804F08D0B44FB84205D0AA
:10175000B34FB84202D0B34FB84206D14FF6FF574D
:10176000394046F48077394305E04FF2FF5739405E
:1017700044F48077394382830184F0BD028B4FF2B9
:10178000FF331A400283028B4FF6FF7303EA0123F3
:101790001A4302837047F0B50C461546002200211B
:1017A0000026078C4FF6EF7C07EA0C070784028BB4
:1017B000018C4FF6FF7707EA041640F6FF473A40E0
:1017C0004FF6FF7707EA03373A434FF6FF7707EA0A
:1017D00005273A438F4FB8420ED08F4FB8420BD0F7
:1017E000B0F1804F08D08D4FB84205D08C4FB84231
:1017F00002D08C4FB84206D14FF6DF77394046F021
:101800001007394305E04FF65F77394044F0100781
:10181000394302830184F0BD028B4FF6F3731A4003
:101820000283028B0A4302837047F0B50C461546CB
:1018300000220021068C4FF6FE773E400684028B84
:10184000018C4FF60C7632407E1C06EA03162E43BE
:101850003243704EB0420ED06F4EB0420BD0B0F15A
:10186000804F08D06D4EB04205D06D4EB04202D0D0
:101870006C4EB04206D14FF6FD76314044F0010681
:10188000314305E04FF6F576314044F0010631432F
:1018900002830184F0BD70B505460C465D48854263
:1018A0000ED05D4885420BD0B5F1804F08D05B4823
:1018B000854205D05A48854202D05A48854200D117
:1018C00000E000BF208850B92389A288618828469B
:1018D000FFF7ABFFE1882846FFF79EFF25E0208851
:1018E00004280AD12389A28861882846FFF753FF7C
:1018F000E1882846FFF742FF17E0208808280AD130
:101900002389A28861882846FFF7FBFEE1882846E4
:10191000FFF7EEFE09E02389A28861882846FFF7D9
:10192000A6FEE1882846FFF795FE70BD2DE9F0413F
:1019300005460C4600260127608808B9022600E00B
:101940000026A088012801D1022700E00127208875
:10195000A0B92389A28861882846FFF766FFE1883D
:101960002846FFF759FF23893A4631462846FFF7B4
:1019700012FFE1882846FFF701FF13E02389A288C0
:1019800061882846FFF707FFE1882846FFF7F6FE43
:1019900023893A4631462846FFF747FFE188284623
:1019A000FFF73AFFBDE8F0810A884B881A438B881D
:1019B0001A43CB881A430B891A434B891A438B89E4
:1019C0001A43A0F8442070474FF6FF718180002130
:1019D0000180C180418001727047002101804180F7
:1019E0008180C180018141818181C1817047002155
:1019F00001804180012181800021C18001817047E7
:101A00000021018041808180C180018141818181EB
:101A100070470000002C01400034014000040040E9
:101A200000080040000C004021B1028842F0010291
:101A3000028004E002884FF6FE731A40028070476D
:101A400031B1B0F8442042F40042A0F8442005E04F
:101A5000B0F84420C2F30E02A0F8442070471AB137
:101A600083890B43838102E083898B4383817047A1
:101A70008182704741EA0203A0F8483070471AB1EA
:101A800083890B43838102E083898B438381704781
:101A900001894FF6F8721140018170470A46002112
:101AA00001894FF68F73194011430181704730B59A
:101AB00004460D4629462046FFF7F0FF208940F0F6
:101AC0000700208130BD2DE9F04104460D46164641
:101AD0001F46602D06D13B46012231462046FFF7C6
:101AE0005AFE05E03B46012231462046FFF79DFEA7
:101AF00029462046FFF7D2FF208940F007002081C9
:101B0000BDE8F08130B50C4600210189C9B24FF61D
:101B1000FF7505EA0325154325432943018130BD9F
:101B20002DE9F04105460E461746984600244346E7
:101B30003A4631462846FFF7E5FF2C894FF6F87004
:101B4000044044F007044FF68F70044044F07004E2
:101B50002C81BDE8F081F0B504460D4616461F46BF
:101B60003B46324629462046FFF7CCFF208940F409
:101B700080402081F0BD0185828270470A460021A5
:101B800001884FF68F731940114301807047F0B5FB
:101B90000C4615461E460021002200230189028BB7
:101BA000038C4FF6F877394021434FF6FC473A4013
:101BB00040F201173A434FF6DD773B404FF6FF778F
:101BC00007EA06172F433B43018102830384F0BDDC
:101BD0000A460021018B4FF68F7319401143018390
:101BE00070470A460021018B48F6FF7319404FF6F3
:101BF000FF7303EA02231943018370470A46002159
:101C0000818B4FF68F7319401143818370470A46C9
:101C10000021818B48F6FF7319404FF6FF7303EAEA
:101C2000022319438183704721B1028842F0800268
:101C3000028004E002884FF67F731A4002807047EA
:101C400021B1828842F00402828004E082884FF64B
:101C5000FB731A408280704721B1828842F00802EB
:101C6000828004E082884FF6F7731A4082807047C2
:101C700021B1828842F00102828004E082884FF61E
:101C8000FE731A40828070470A460021018B4FF68E
:101C9000F77319401143018370470A460021018BF5
:101CA0004FF2FF7319404FF6FF7303EA0223194303
:101CB000018370470A460021818B4FF6F773194064
:101CC0001143818370470A460021818B4FF2FF73D5
:101CD00019404FF6FF7303EA0223194381837047CB
:101CE0000A460021018B4FF6FB7319401143018313
:101CF00070470A460021018B4FF6FF3319404FF61B
:101D0000FF7303EA02231943018370470A46002147
:101D1000818B4FF6FB7319401143818370470A464C
:101D20000021818B4FF6FF3319404FF6FF7303EA12
:101D300002231943818370470A460021018B4FF625
:101D40007F7319401143018370470A460021018BBC
:101D5000C1F30E014FF6FF7303EA02231943018317
:101D600070470A460021818B4FF67F73194011435B
:101D7000818370470A460021818BC1F30E014FF623
:101D8000FF7303EA02231943818370470A46002147
:101D9000018C4FF6FD7319401143018470470A46C8
:101DA0000021018C4FF6F7731940114301847047ED
:101DB0000A460021018C4FF6DF7319404FF6FF737E
:101DC00003EA02131943018470470A460021018C7B
:101DD0004FF67F7319404FF6FF7303EA021319435E
:101DE000018470470A460021018C4FF6FF531940C9
:101DF0004FF6FF7303EA02231943018470470A4632
:101E00000021018C4FF2FF7319404FF6FF7303EA74
:101E100002231943018470470A460021018C4DF6C4
:101E2000FF7319404FF6FF7303EA0233194301842D
:101E3000704730B5002301248C40A3B2048C9C432E
:101E40000484048C02FA01F5ADB22C43048430BD45
:101E500030B5002304248C40A3B2048C9C4304843A
:101E6000048C02FA01F5ADB22C43048430BD70B588
:101E70000346002000241846183001258D40ACB2DE
:101E80001D8CA5431D8409B1082909D100EB61000F
:101E9000056825F0700505600568154305600EE0CE
:101EA0000D1FC5F34E052844056825F4E04505607F
:101EB00005684FF6FF7606EA02263543056070BDD9
:101EC00021B1028842F00202028004E002884FF64B
:101ED000FD731A400280704721B1028842F004026B
:101EE000028004E002884FF6FB731A4002807047BC
:101EF00021B1828842F08002828004E082884FF61D
:101F00007F731A408280704702884FF6F7731A4039
:101F1000028002880A430280704782884FF68F73DE
:101F20001A40828082880A438280704702894FF675
:101F3000F8731A40028102890A43028170470289BC
:101F40004FF67F731A40028102890A43028170476B
:101F5000818470478185704781867047018770470B
:101F600081877047A0F84010704702884FF6FF4302
:101F70001A40028002880A43028070470146888E18
:101F800070470146088F70470146888F70470146A9
:101F9000B1F8400070470146888C70470146088DB3
:101FA000704702460020138A0B400BB1012000E06D
:101FB00000207047CA430282704730B502460020B5
:101FC00000230024158A05EA0103958905EA010426
:101FD00013B10CB1012000E0002030BDCA430282E1
:101FE0007047000010B50446FB48844209D1012126
:101FF0008803FFF79FF800214FF48040FFF79AF81D
:1020000032E0F648844209D101214804FFF79FF8E5
:1020100000214FF40030FFF79AF825E0F0488442A1
:1020200009D101218804FFF792F800214FF48020A4
:10203000FFF78DF818E0EB48844209D10121C8046C
:10204000FFF785F800214FF40020FFF780F80BE040
:10205000E548844208D101210805FFF778F80021FE
:102060004FF48010FFF773F810BD2DE9F04786B0EC
:1020700005460E460024A24600BFA1460027B089AF
:1020800000B100BF2F462C8A4CF6FF700440F08848
:1020900004432C82AC894EF6F3100440B088318999
:1020A0000843718908430443AC81AC8A4FF6FF4072
:1020B0000440B0890443AC8201A8FEF7B4FFC648CF
:1020C000874202D1DDF810A001E0DDF80CA0A8895C
:1020D00000F4004040B10AEBCA0000EB0A1031687E
:1020E0004900B0FBF1F807E00AEBCA0000EB0A1068
:1020F00031688900B0FBF1F86420B8FBF0F004010E
:102100002009642101FB1089A88900F4004040B136
:10211000322000EBC900B0FBF1F000F007000443EF
:1021200008E0322000EB09106421B0FBF1F000F070
:102130000F0004432C8106B0BDE8F0874FF4165120
:10214000016000218180C18001810C214181002139
:102150008181704710B502460020108A4FF2FF03BC
:1021600018400B884C8823438C882343CC88234316
:102170001843108210BD0021018041808180C18000
:10218000704721B1828942F40052828104E0828941
:102190004DF6FF731A4082817047F0B50346002464
:1021A00000260025002040F66A17B94200D100BF82
:1021B0001846C1F3421401F01F06012707FA06F57D
:1021C000012C01D10C3004E0022C01D1103000E0D0
:1021D00014301AB107682F43076002E00768AF4365
:1021E0000760F0BD1AB1838A0B43838202E0838AC1
:1021F0008B4383827047028A4FF6F0731A40028243
:10220000028A0A430282704782894FF2FF731A40A2
:10221000828182890A438281704721B1828942F09A
:102220000202828104E082894FF6FD731A408281A6
:102230007047028A4FF6DF731A400282028A0A430D
:102240000282704721B1028A42F48042028204E095
:10225000028A4BF6FF731A4002827047C1F30802EC
:102260008280704701468888C0F3080070478189E2
:1022700041F0010181817047028BD2B20283028B4F
:1022800042EA012202837047028B02F47F420283FA
:10229000028B0A430283704721B1828A42F02002F6
:1022A000828204E0828A4FF6DF731A40828270478E
:1022B00021B1828A42F01002828204E0828A4FF6C3
:1022C000EF731A408282704721B1828A42F008027D
:1022D000828204E0828A4FF6F7731A408282704746
:1022E00021B1828942F40042828103E08289C2F3F3
:1022F0000E028281704721B1828A42F4006282829A
:1023000004E0828A4FF2FF731A4082827047828A09
:102310004FF6FB731A408282828A0A438282704798
:1023200021B1828A42F00202828204E0828A4FF660
:10233000FD731A408282704702460020B1F5007F8B
:1023400000D100BF13880B400BB1012000E000203A
:10235000704701F40072B2F5007F00D100BFCA439C
:102360000280704770B5024600240023002500203B
:1023700040F66A16B14200D100BFC1F3421501F028
:102380001F03012606FA03F3012D02D1968933407B
:1023900006E0022D02D1168A334001E0968A3340CE
:1023A0000C12012606FA04F41688344013B10CB15D
:1023B000012000E0002070BD10B50022002340F68F
:1023C0006A14A14200D100BF0A1201249440A3B2B2
:1023D000DC43048010BD0000003801400044004090
:1023E00000480040004C0040005000401CB500BFB9
:1023F00000200190009000F00CFC00F053F800F079
:1024000017FD00F040FA23E001A800F07DFA114822
:102410000088B0F5FA7F0DDB9DF80420511CC9B28D
:10242000104601910C490A68012100F0A7FA00202A
:102430000849088009480088C82809DB684600F078
:1024400097FC10B1002000F024FA00200349088016
:10245000DAE700006400002034000020660000205D
:10246000704700BFFEE700BFFEE700BFFEE700BF0A
:10247000FEE77047704770477047000008B54FF49B
:10248000A060FDF761FF27208DF8000000208DF887
:1024900001008DF8020001208DF803006846FDF769
:1024A00058FF08BD00B585B001210820FEF728FEC1
:1024B00001218804FEF731FE4FF48060ADF8100072
:1024C00018208DF8130003208DF8120004A952483B
:1024D000FEF75AFB4FF40060ADF8100004208DF8B1
:1024E000130004A94C48FEF74FFB4FF4E130009075
:1024F0000020ADF80400ADF80600ADF80800ADF816
:102500000C000C20ADF80A0069464448FFF7ADFD09
:10251000FFF7B4FF012240F225514048FFF73DFE8E
:1025200001213E48FFF72DFE05B000BD70B5044601
:102530000D4629462046FFF791FE00BF8021204628
:10254000FFF7FAFE0028F9D070BD2DE9F0410746EB
:102550000D461646002405E0295D3846FFF7E6FFE4
:10256000601CC4B2B442F7DB00BF40213846FFF71D
:10257000E3FE0028F9D0BDE8F08170B506460C46B0
:10258000002500BF615D3046FFF7D0FF6D1C605D28
:102590000028F7D100BF40213046FFF7CDFE0028CC
:1025A000F9D070BD70B504460D46E1B21B48FFF787
:1025B00055FE00BF80211948FFF7BEFE0028F9D064
:1025C000204670BD10B540F225511448FFF7CAFEF1
:1025D00008B313480078092818DA12480078A8B917
:1025E0000E48FFF73FFEC1B20D4802780078401C4C
:1025F0000B4B18700C48815418460078092805D1F7
:1026000001200849087000201946087040F2255141
:102610000248FFF7D1FE10BD000C01400048004009
:1026200028000020400000207600002000B585B082
:1026300001210420FEF771FD01210820FEF760FD55
:10264000C020ADF8100004208DF8130003208DF891
:10265000120004A95748FEF797FAC420ADF8080005
:102660000020ADF80400ADF80A00ADF8060001A99D
:102670005148FEF77DFE0A231A4603214E48FFF714
:1026800086FA00204D49088048800120888000207B
:10269000C880012008814848FFF7FDF81E208DF80A
:1026A000000001208DF801008DF802008DF8030074
:1026B0006846FDF74EFE01213F48FFF77BFC0122F3
:1026C00011463D48FFF7CBF900213B48FFF740FC9E
:1026D00001213948FFF7A8F905B000BD10B5012167
:1026E0003548FFF76AFC80B13348008800F01000DD
:1026F000102805D032480068401C3149086004E0C9
:102700002F480068401E2E49086001212A48FFF723
:1027100065FC10BD2DE9F0472748FFF73CFC8246D9
:10272000C11700EB9171881000F004FE06460022EC
:10273000244B00F082FD04460022234B00F00BFDE9
:10274000804600F053FE21490860BDE8F0872DE97E
:10275000FC5F002001901848FFF71DFC009000F07E
:10276000E4FD83464FF0814100F010FC824600F00A
:102770002AFE06460022134B00F05FFD04460022AD
:10278000114B00F0E8FC804600F030FE0F49086075
:10279000084600680E4908600E4801680C48006849
:1027A00000F0BCFB01900A4800680A4908600198E3
:1027B000BDE8FC9F000C0140000800406C000020B8
:1027C0002C0000200000494000002440340000207C
:1027D0003C0000203800002008B501210820FEF749
:1027E0008FFC0220ADF8000018208DF803000320B4
:1027F0008DF8020069463B48FEF7C6F90121082022
:10280000FEF77EFC4FF48040ADF8000010208DF8FC
:10281000030003208DF8020069463248FEF7B4F940
:1028200008BD00B587B001210220FEF776FC4FF409
:102830007A70ADF814004720ADF810000020ADF814
:102840001600ADF812008DF8180004A92648FEF70E
:102850008FFD6020ADF800000120ADF802000220DD
:10286000ADF808000020ADF8060069461E48FEF7E6
:1028700096FE08211C48FFF726FA01211A48FFF7A7
:10288000D3F807B000BD10B5FFF7A6FFFFF7C9FFEB
:1028900010BD10B50446B4F57A7F01DD4FF47A74AB
:1028A00014F57A7F00DA114C002C09DD00224FF478
:1028B00080410C48FEF719FA0B4940310C800FE0BB
:1028C000002C09DA012291030648FEF70EFA604255
:1028D00005494031088003E0002003494031088069
:1028E00010BD0000000C01400004004018FCFFFF78
:1028F0000246002005E01378034498B2521C4B1E98
:10290000D9B20029F7D170472DE9F04107460026DA
:102910003148007878B331488578C0792F49097AF1
:1029200040EA01262D48C0782C49097940EA012067
:102930002A49497940EA01402849897940EA0164F5
:1029400007212648FFF7D4FFB04211D1012D0AD14B
:10295000B4F5966F01D94FF49664204600F0E5FC7B
:102960001F49086003E06FF00100BDE8F08100BF7F
:102970000020194908706FF00200F6E7FEB5054621
:102980000E46144600200090019002900027662019
:102990008DF800008DF801508DF80260E0B28DF8DE
:1029A0000300200A8DF80400200C8DF80500200E8D
:1029B0008DF8060007216846FFF79AFF0746F8B230
:1029C0008DF80700380A8DF8080009226946054885
:1029D000FFF7BBFD0020FEBD400000207600002078
:1029E000440000200048004008B54FF4E060FDF7C7
:1029F000ABFC36208DF8000000208DF8010003208C
:102A00008DF8020001208DF803006846FDF7A1FC57
:102A100008BD0EB501211020FEF77FFB42F20F70BA
:102A2000ADF804004720ADF8000069465248FEF7B3
:102A30009FFC01215048FFF7BDFA012211464E4884
:102A4000FFF70DF801214C48FEF7EEFF0EBD10B563
:102A5000FFF7CAFFFFF7DDFF10BD2DE9FC5F04465D
:102A60000D46464E3746601B4549086008460068DB
:102A700000F052FC3946009000F056FA8246404978
:102A80000968404A1268881A00F046FC31460090F6
:102A900000F04AFA8346514600F0EEF981463A4882
:102AA000006800F039FC4946019000F0E5F98046E5
:102AB00000F051FC34490860314800683149086031
:102AC00031480068BDE8FC9F2DE9F05F04460D46E3
:102AD0002E4E2F4F601B2F4908602F480068096851
:102AE00008442D4908600846006800F015FC83463C
:102AF000394600F019FA81462648006800F00CFCBF
:102B00008346314600F010FA8246494600F0B4F997
:102B1000804600F020FC2149086008460068BDE8B6
:102B2000F09F70B5002401211348FFF746FA08B35F
:102B3000FFF70DFE1A4908601A48006800F00BFC08
:102B400005461948006800F006FC06462946FFF7CE
:102B5000BBFF04461248006800F0FDFB05466142D9
:102B6000FFF77BFF044620B2FFF793FE01210248E6
:102B7000FFF734FA70BD0000001000400000C842AA
:102B80004C00002054000020500000200000704144
:102B90000AD7233C58000020600000205C00002081
:102BA00030000020440000203400002008B54FF41D
:102BB000E060FDF7C9FB37208DF8000000208DF89C
:102BC000010003208DF8020001208DF80300684603
:102BD000FDF7BFFB08BD0EB501212020FEF79DFAD1
:102BE00040F2E730ADF804004720ADF80000694638
:102BF0001548FEF7BDFB01211348FFF7DBF9012261
:102C000011461148FEF72BFF01210F48FEF70CFF7C
:102C10000EBD10B5FFF7CAFFFFF7DDFF10BD10B501
:102C200001210948FFF7C9F968B108480088401C2C
:102C30000649088006480088401C05490880012193
:102C40000148FFF7CBF910BD0014004064000020DC
:102C50006600002008B501210420FEF751FA30205B
:102C6000ADF8000000208DF8030069466748FDF7C5
:102C70008BFF08BD00B591B001210846FEF733FA7D
:102C800001214802FEF73CFA6148FDF7F3FD614877
:102C900006906148079000200890022009900020CB
:102CA0000A9080200B9040000C9080000D90202016
:102CB0000E9000020F900020109006A95448FDF7D6
:102CC0007BFE01215248FDF7A2FE00200190012069
:102CD0008DF808008DF809004FF460200390002063
:102CE000049002208DF8140001A94A484C38FDF7E1
:102CF000C0FB4FF44040FEF767F905230122042191
:102D000044484C38FDF74DFC052302221946414842
:102D10004C38FDF746FC01213E484C38FDF7E0FBFE
:102D200001213C484C38FDF7D0FB3A484C38FDF7C0
:102D3000EEFB00BF37484C38FDF7EEFB0028F9D119
:102D400034484C38FDF7F2FB00BF32484C38FDF7F1
:102D5000F2FB0028F9D101212E484C38FDF7F5FB94
:102D600011B000BD10B5FFF775FFFFF783FF10BD71
:102D70002DE9FF5F82464FF0000B2749488800F09D
:102D8000D4FA4FF08B41039000F000F981462349BB
:102D900000F0CAF8804600F016FB06464FF0663297
:102DA0001F4B00F0D8F9044600F020FB834659463B
:102DB0004FF0804000F0B8F8019000F004FB0022D2
:102DC000184BCDE9020100F0C3F906460022164B6C
:102DD00000F033FA80460022144B00F0BCF90446A0
:102DE00000F0D2FACAF8000044F62061DAF80000D8
:102DF000884204DC4942DAF80000884203DA012004
:102E000004B0BDE8F09F0020FAE700000008014090
:102E1000080002404C2401406800002000007A4471
:102E200066660A400088A3400000444000408F408E
:102E300008B501211020FEF763F90420ADF8000069
:102E400010208DF8030003208DF802006946094820
:102E5000FDF79AFE0820ADF8000069460548FDF729
:102E600093FE04210348FDF73CFF08210148FDF7CC
:102E700038FF08BD00100140F0B480EA0102D40F11
:102E80004200B2EB410F02D20246084611464A0008
:102E900042D0C30DDDB2C1F3C752AD1A202D35DAD1
:102EA000C1F3160141F4000204B15242C5F12006FB
:102EB00002FA06F12A411044B3EBD05F23D0C4B12B
:102EC000012DA0EBC35009DCF0BC4FF0004202EA38
:102ED000C352DBB200F5000000F0DEBA400000F1A2
:102EE000807000EBC350A0F1807040EAD1704900BF
:102EF00009E0490841EAC071A0EBC35000F50000A9
:102F0000400800EBC350F0BC00F0BDBA61420122A2
:102F100002EB4101001BF6E7F0BC704781F0004175
:102F2000AAE780F00040A7E780EA010210B502F0AE
:102F30000043400022D04A001FD0010E01EB126175
:102F4000C0F35600C2F3560240F4000042F40002FF
:102F5000A0FB022000047F39140400D0401C50EA7A
:102F6000124001D44000491EC2B20C0604EBD0103E
:102F7000401C4008802A02D003E0002010BD20F051
:102F80000100002900DA0020184310BD30B480EAA7
:102F9000010202F0004530F0004221F0004013D061
:102FA00090B1C30DD40DC2F31601C0F31600E41A9C
:102FB00041F4000140F400027D34914201D3641CCD
:102FC00000E04900002C02DA30BC002070474FF4CA
:102FD00000000023914201D3891A034340084FEABD
:102FE0004101F7D151B1914202D14FF0004105E0CA
:102FF00002D24FF0010101E06FF0010103EBC45078
:10300000284430BC00F03FBA2DE9FE4F804681EAEB
:103010000300C00F0C46009021F0004123F0004552
:10302000B8EB0200A94105D24046214690461C4615
:103030000B46024623F00040104347D0270DC7F34C
:103040000A00C3F30A510290401A019040286BDA3B
:10305000C3F3130040F4801B0098924620B1002374
:10306000D2EB030A63EB0B0B01985946C0F1400207
:10307000504600F0D7F906460D4650465946019A8B
:1030800000F0EFF910EB08006141002487EA1152CB
:1030900084EAE7731A4340D0009A62B3019A012A86
:1030A0004FEA075215DC001B61EB02014FF00042B2
:1030B00002EA0752CDE90042001C41F58011324678
:1030C0002B4600F026FA03B0BDE8F08F40462146BB
:1030D000F9E7001B61EB0201001C41F580130018A9
:1030E0005B412018A2F5001747EB030140EAD570B9
:1030F000B6196D4111E06D084FEA360645EAC07514
:103100004FEA0752001B61EB0201001C41F58011E0
:1031100049084FEA30000019514132462B4603B0AE
:10312000BDE8F04F00F0E6B900980122400000230E
:10313000D0EB020263EBE073009821464FEAE074A3
:10314000B8EB000061EB0401E9E783F000435BE7C3
:1031500081F0004158E72DE9FE4F81EA030404F0B5
:10316000004421F0004100944FF0000B23F0004395
:1031700050EA01045ED052EA03045BD0C3F30A5460
:10318000C1F30A552C44A4F2F3340194A0FB025479
:10319000C1F3130141F48011C3F3130343F480130B
:1031A00001FB024400FB034E840A970A44EA81545F
:1031B00047EA8357A4FB076802958D0A05FB07853C
:1031C0004FEA932C04FB0C542705029D4FEA065846
:1031D00047EA1637B5EB08056EEB070C870E920E23
:1031E00047EA811742EA8312A7FB0201B6EB0B0103
:1031F00064EB00042B0D43EA0C335E1844EB1C50C7
:10320000DA465146E7FB0201C5F313044FEA0B33DC
:1032100043EA14534FEA0432019C43EA0603A4F143
:103220000C040294009CCDE900B400F072F903B0E4
:10323000BDE8F08F00200146F9E72DE9F04D81EA65
:10324000030404F0004B21F0004514464FF0000A3F
:1032500023F0004150EA050220D054EA01021DD0BB
:10326000C5F30A570246C5F31303C1F31300C1F3B4
:103270000A5640F4801543F48013A7EB0608101B90
:10328000D64608F2FD3873EB050002D308F10108B9
:1032900001E092185B41B8F1000F03DA002001460B
:1032A000BDE8F08D00204FF48011064684460EE004
:1032B000171B73EB050705D3121B63EB05030643CE
:1032C0004CEA010C49084FEA300092185B4150EA81
:1032D0000107EDD152EA030012D082EA040083EA2A
:1032E0000501084305D0101BAB4106D20122002383
:1032F00006E000224FF0004302E06FF0010253109D
:103300001AEB06004CEB085110EB0A0041EB0B01E5
:10331000BDE8F04D00F0EEB8C10F80EAE07008445F
:10332000CA079623002100F0B7B896230022114661
:1033300000F0B2B80EB5C10F80EAE0700844CA07C9
:10334000002140F233438DE80E000A460B4600F0A0
:10335000E0F803B000BD00F0004220F00040C10DD5
:10336000C0F3160040F400007F2901DA0020704706
:10337000962903DCC1F19601C84001E096398840E6
:10338000002AF4D04042704770B5C1F30A5201F0F0
:1033900000450024C1F3130140F2FF3341F48011D2
:1033A0009A4201DA002070BD40F233439A42A2F201
:1033B000334203DC524200F044F800E090402C43DA
:1033C000F1D0404270BD00F0004230F000400AD021
:1033D000C10D01F56071C0F3160042EA0151C20847
:1033E00040071143704700200146704701F0004339
:1033F00030B421F0004150EA010206D00A0DA2F5D6
:103400006072C1F31301002A02DC30BC0020704757
:10341000440F44EAC104C100E01830BC00EBC250C4
:1034200000F031B8202A04DB203A00FA02F1002033
:1034300070479140C2F1200320FA03F319439040F2
:103440007047202A04DB203A21FA02F0002170475D
:1034500021FA02F3D040C2F12002914008431946FC
:103460007047202A06DBCB17203A41FA02F043EAE4
:10347000E07306E041FA02F3D040C2F1200291402D
:103480000843194670470029A8BF7047401C4900EF
:1034900008BF20F00100704710B4B0FA80FC00FAB9
:1034A0000CF050EA010404BF10BC704749B1CCF1E4
:1034B000200421FA04F411FA0CF118BF0121214370
:1034C0000843A3EB0C01CB1D4FEA00614FEA10202B
:1034D00042BF002010BC704700EBC35010440029CD
:1034E000A4BF10BC7047401C490008BF20F0010079
:1034F00010BC704710B5141E73F1000408DA401CAC
:1035000041F1000192185B411A4301D120F0010002
:1035100010BD2DE9F04D92469B4611B1B1FA81F2F2
:1035200002E0B0FA80F220329046FFF77BFF0446BB
:103530000F4640EA0A0041EA0B0153465A46084347
:1035400013D0114653EA010019D0C8F14002504689
:10355000FFF777FF05460E46504659464246FFF7AD
:1035600061FF084305D0012004E020463946BDE84C
:10357000F08D0020054346EAE0762C4337430A9855
:103580006305E40AA0EB08000022FD0A44EA475460
:103590000A3002D500200146E9E70105101969410A
:1035A000DDE9084500196941BDE8F04DA2E70000DA
:1035B000064C074D06E0E06840F0010394E8070080
:1035C00098471034AC42F6D3FCF7B6FDF43500084A
:1035D0001436000802E008C8121F08C1002AFAD1F8
:1035E00070477047002001E001C1121F002AFBD183
:1035F0007047000014360008000000206C00000036
:10360000D4350008803600086C0000201404000047
:10361000E435000800A24A04000000000000000099
:103620000102030406070809000000000102030468
:10363000010203040607080902040608000000004E
:10364000000000000000000000000000000000007A
:10365000000000000000000000000000000000006A
:10366000000000000000000000000000000000005A
:10367000000000000000000000000000000000004A
:0400000508000131BD
:00000001FF
